{
  "_format": "hh-sol-artifact-1",
  "contractName": "InvitationPortal",
  "sourceName": "contracts/InvitationPortal.sol",
  "abi": [
    {
      "inputs": [],
      "stateMutability": "nonpayable",
      "type": "constructor"
    },
    {
      "anonymous": false,
      "inputs": [
        {
          "indexed": true,
          "internalType": "address",
          "name": "from",
          "type": "address"
        },
        {
          "indexed": false,
          "internalType": "uint256",
          "name": "timestamp",
          "type": "uint256"
        },
        {
          "indexed": false,
          "internalType": "string",
          "name": "message",
          "type": "string"
        }
      ],
      "name": "NewConfirmation",
      "type": "event"
    },
    {
      "inputs": [
        {
          "internalType": "string",
          "name": "_message",
          "type": "string"
        }
      ],
      "name": "confirm",
      "outputs": [],
      "stateMutability": "nonpayable",
      "type": "function"
    },
    {
      "inputs": [],
      "name": "getAllConfirmations",
      "outputs": [
        {
          "components": [
            {
              "internalType": "address",
              "name": "guest",
              "type": "address"
            },
            {
              "internalType": "string",
              "name": "message",
              "type": "string"
            },
            {
              "internalType": "uint256",
              "name": "timestamp",
              "type": "uint256"
            }
          ],
          "internalType": "struct InvitationPortal.Confirmation[]",
          "name": "",
          "type": "tuple[]"
        }
      ],
      "stateMutability": "view",
      "type": "function"
    },
    {
      "inputs": [],
      "name": "getTotalConfirmations",
      "outputs": [
        {
          "internalType": "uint256",
          "name": "",
          "type": "uint256"
        }
      ],
      "stateMutability": "view",
      "type": "function"
    }
  ],
  "bytecode": "0x60806040523480156200001157600080fd5b506200005d6040518060400160405280601a81526020017f556562612c2069276d206120736d61727420636f6e74726163740000000000008152506200006360201b620003781760201c565b620001f7565b62000103816040516024016200007a919062000170565b6040516020818303038152906040527f41304fac000000000000000000000000000000000000000000000000000000007bffffffffffffffffffffffffffffffffffffffffffffffffffffffff19166020820180517bffffffffffffffffffffffffffffffffffffffffffffffffffffffff83818316178352505050506200010660201b60201c565b50565b60008151905060006a636f6e736f6c652e6c6f679050602083016000808483855afa5050505050565b60006200013c8262000194565b6200014881856200019f565b93506200015a818560208601620001b0565b6200016581620001e6565b840191505092915050565b600060208201905081810360008301526200018c81846200012f565b905092915050565b600081519050919050565b600082825260208201905092915050565b60005b83811015620001d0578082015181840152602081019050620001b3565b83811115620001e0576000848401525b50505050565b6000601f19601f8301169050919050565b610c3780620002076000396000f3fe608060405234801561001057600080fd5b50600436106100415760003560e01c8063847d2b0f14610046578063c7ab74a414610064578063f155e5ba14610080575b600080fd5b61004e61009e565b60405161005b9190610901565b60405180910390f35b61007e60048036038101906100799190610680565b6100cc565b005b610088610227565b6040516100959190610848565b60405180910390f35b60006100c4604051806060016040528060248152602001610bde60249139600054610411565b600054905090565b60016000808282546100de9190610a13565b92505081905550610108604051806060016040528060268152602001610bb86026913933836104ad565b600160405180606001604052803373ffffffffffffffffffffffffffffffffffffffff16815260200183815260200142815250908060018154018082558091505060019003906000526020600020906003020160009091909190915060008201518160000160006101000a81548173ffffffffffffffffffffffffffffffffffffffff021916908373ffffffffffffffffffffffffffffffffffffffff16021790555060208201518160010190805190602001906101c7929190610575565b506040820151816002015550503373ffffffffffffffffffffffffffffffffffffffff167f24b2b9b719cb225ed015705e48174cb9c1fa0b38ce1566d21236fbaffe27e867428360405161021c92919061091c565b60405180910390a250565b60606001805480602002602001604051908101604052809291908181526020016000905b8282101561036f57838290600052602060002090600302016040518060600160405290816000820160009054906101000a900473ffffffffffffffffffffffffffffffffffffffff1673ffffffffffffffffffffffffffffffffffffffff1673ffffffffffffffffffffffffffffffffffffffff1681526020016001820180546102d490610ae7565b80601f016020809104026020016040519081016040528092919081815260200182805461030090610ae7565b801561034d5780601f106103225761010080835404028352916020019161034d565b820191906000526020600020905b81548152906001019060200180831161033057829003601f168201915b505050505081526020016002820154815250508152602001906001019061024b565b50505050905090565b61040e8160405160240161038c919061086a565b6040516020818303038152906040527f41304fac000000000000000000000000000000000000000000000000000000007bffffffffffffffffffffffffffffffffffffffffffffffffffffffff19166020820180517bffffffffffffffffffffffffffffffffffffffffffffffffffffffff838183161783525050505061054c565b50565b6104a982826040516024016104279291906108d1565b6040516020818303038152906040527fb60e72cc000000000000000000000000000000000000000000000000000000007bffffffffffffffffffffffffffffffffffffffffffffffffffffffff19166020820180517bffffffffffffffffffffffffffffffffffffffffffffffffffffffff838183161783525050505061054c565b5050565b6105478383836040516024016104c59392919061088c565b6040516020818303038152906040527fe0e9ad4f000000000000000000000000000000000000000000000000000000007bffffffffffffffffffffffffffffffffffffffffffffffffffffffff19166020820180517bffffffffffffffffffffffffffffffffffffffffffffffffffffffff838183161783525050505061054c565b505050565b60008151905060006a636f6e736f6c652e6c6f679050602083016000808483855afa5050505050565b82805461058190610ae7565b90600052602060002090601f0160209004810192826105a357600085556105ea565b82601f106105bc57805160ff19168380011785556105ea565b828001600101855582156105ea579182015b828111156105e95782518255916020019190600101906105ce565b5b5090506105f791906105fb565b5090565b5b808211156106145760008160009055506001016105fc565b5090565b600061062b6106268461097d565b61094c565b90508281526020810184848401111561064357600080fd5b61064e848285610aa5565b509392505050565b600082601f83011261066757600080fd5b8135610677848260208601610618565b91505092915050565b60006020828403121561069257600080fd5b600082013567ffffffffffffffff8111156106ac57600080fd5b6106b884828501610656565b91505092915050565b60006106cd83836107da565b905092915050565b6106de81610a69565b82525050565b6106ed81610a69565b82525050565b60006106fe826109bd565b61070881856109e0565b93508360208202850161071a856109ad565b8060005b85811015610756578484038952815161073785826106c1565b9450610742836109d3565b925060208a0199505060018101905061071e565b50829750879550505050505092915050565b6000610773826109c8565b61077d81856109f1565b935061078d818560208601610ab4565b61079681610ba6565b840191505092915050565b60006107ac826109c8565b6107b68185610a02565b93506107c6818560208601610ab4565b6107cf81610ba6565b840191505092915050565b60006060830160008301516107f260008601826106d5565b506020830151848203602086015261080a8282610768565b915050604083015161081f604086018261082a565b508091505092915050565b61083381610a9b565b82525050565b61084281610a9b565b82525050565b6000602082019050818103600083015261086281846106f3565b905092915050565b6000602082019050818103600083015261088481846107a1565b905092915050565b600060608201905081810360008301526108a681866107a1565b90506108b560208301856106e4565b81810360408301526108c781846107a1565b9050949350505050565b600060408201905081810360008301526108eb81856107a1565b90506108fa6020830184610839565b9392505050565b60006020820190506109166000830184610839565b92915050565b60006040820190506109316000830185610839565b818103602083015261094381846107a1565b90509392505050565b6000604051905081810181811067ffffffffffffffff8211171561097357610972610b77565b5b8060405250919050565b600067ffffffffffffffff82111561099857610997610b77565b5b601f19601f8301169050602081019050919050565b6000819050602082019050919050565b600081519050919050565b600081519050919050565b6000602082019050919050565b600082825260208201905092915050565b600082825260208201905092915050565b600082825260208201905092915050565b6000610a1e82610a9b565b9150610a2983610a9b565b9250827fffffffffffffffffffffffffffffffffffffffffffffffffffffffffffffffff03821115610a5e57610a5d610b19565b5b828201905092915050565b6000610a7482610a7b565b9050919050565b600073ffffffffffffffffffffffffffffffffffffffff82169050919050565b6000819050919050565b82818337600083830152505050565b60005b83811015610ad2578082015181840152602081019050610ab7565b83811115610ae1576000848401525b50505050565b60006002820490506001821680610aff57607f821691505b60208210811415610b1357610b12610b48565b5b50919050565b7f4e487b7100000000000000000000000000000000000000000000000000000000600052601160045260246000fd5b7f4e487b7100000000000000000000000000000000000000000000000000000000600052602260045260246000fd5b7f4e487b7100000000000000000000000000000000000000000000000000000000600052604160045260246000fd5b6000601f19601f830116905091905056fe257320636f6e6669726d65642070726573656e6365212057697468206d65737361676520257357652068617665206120746f74616c206f6620256420636f6e6669726d6174696f6e7321a26469706673582212206f8b366efbdeea90b37b2b60f7d3372bf3c6688b6d3b0dd8e3ffa1fd2773b81f64736f6c63430008000033",
  "linkReferences": {},
  "deployedLinkReferences": {}
}